{
  "contractName": "PatientRecords",
  "abi": [
    {
      "anonymous": false,
      "inputs": [
        {
          "indexed": false,
          "internalType": "uint256",
          "name": "patientId",
          "type": "uint256"
        },
        {
          "indexed": false,
          "internalType": "string",
          "name": "name",
          "type": "string"
        },
        {
          "indexed": false,
          "internalType": "string",
          "name": "diagnosis",
          "type": "string"
        },
        {
          "indexed": false,
          "internalType": "string",
          "name": "DRGCode",
          "type": "string"
        },
        {
          "indexed": false,
          "internalType": "string",
          "name": "CPTCode",
          "type": "string"
        }
      ],
      "name": "PatientAdded",
      "type": "event"
    },
    {
      "inputs": [],
      "name": "patientCount",
      "outputs": [
        {
          "internalType": "uint256",
          "name": "",
          "type": "uint256"
        }
      ],
      "stateMutability": "view",
      "type": "function",
      "constant": true
    },
    {
      "inputs": [
        {
          "internalType": "uint256",
          "name": "",
          "type": "uint256"
        }
      ],
      "name": "patients",
      "outputs": [
        {
          "internalType": "uint256",
          "name": "patientId",
          "type": "uint256"
        },
        {
          "internalType": "string",
          "name": "name",
          "type": "string"
        },
        {
          "internalType": "string",
          "name": "diagnosis",
          "type": "string"
        },
        {
          "internalType": "string",
          "name": "DRGCode",
          "type": "string"
        },
        {
          "internalType": "string",
          "name": "CPTCode",
          "type": "string"
        },
        {
          "internalType": "bool",
          "name": "exists",
          "type": "bool"
        }
      ],
      "stateMutability": "view",
      "type": "function",
      "constant": true
    },
    {
      "inputs": [
        {
          "internalType": "uint256",
          "name": "_patientId",
          "type": "uint256"
        },
        {
          "internalType": "string",
          "name": "_name",
          "type": "string"
        },
        {
          "internalType": "string",
          "name": "_diagnosis",
          "type": "string"
        },
        {
          "internalType": "string",
          "name": "_DRGCode",
          "type": "string"
        },
        {
          "internalType": "string",
          "name": "_CPTCode",
          "type": "string"
        }
      ],
      "name": "addPatient",
      "outputs": [],
      "stateMutability": "nonpayable",
      "type": "function"
    },
    {
      "inputs": [],
      "name": "retrievePatients",
      "outputs": [
        {
          "components": [
            {
              "internalType": "uint256",
              "name": "patientId",
              "type": "uint256"
            },
            {
              "internalType": "string",
              "name": "name",
              "type": "string"
            },
            {
              "internalType": "string",
              "name": "diagnosis",
              "type": "string"
            },
            {
              "internalType": "string",
              "name": "DRGCode",
              "type": "string"
            },
            {
              "internalType": "string",
              "name": "CPTCode",
              "type": "string"
            },
            {
              "internalType": "bool",
              "name": "exists",
              "type": "bool"
            }
          ],
          "internalType": "struct PatientRecords.Patient[]",
          "name": "",
          "type": "tuple[]"
        }
      ],
      "stateMutability": "view",
      "type": "function",
      "constant": true
    }
  ],
  "bytecode": "0x608060405234801561001057600080fd5b506112de806100206000396000f3fe608060405234801561001057600080fd5b506004361061004c5760003560e01c80637a7b12d11461005157806393119a831461006f578063a0303c41146100a4578063f14ef4a8146100c2575b600080fd5b6100596100de565b6040516100669190610a9a565b60405180910390f35b61008960048036038101906100849190610afc565b610441565b60405161009b96959493929190610b91565b60405180910390f35b6100ac6106aa565b6040516100b99190610c0e565b60405180910390f35b6100dc60048036038101906100d79190610d5e565b6106b0565b005b6060600060015467ffffffffffffffff8111156100fe576100fd610c33565b5b60405190808252806020026020018201604052801561013757816020015b61012461083e565b81526020019060019003908161011c5790505b5090506000805b6001548110156104385760008082815260200190815260200160002060050160009054906101000a900460ff1615610425576000808281526020019081526020016000206040518060c0016040529081600082015481526020016001820180546101a790610e78565b80601f01602080910402602001604051908101604052809291908181526020018280546101d390610e78565b80156102205780601f106101f557610100808354040283529160200191610220565b820191906000526020600020905b81548152906001019060200180831161020357829003601f168201915b5050505050815260200160028201805461023990610e78565b80601f016020809104026020016040519081016040528092919081815260200182805461026590610e78565b80156102b25780601f10610287576101008083540402835291602001916102b2565b820191906000526020600020905b81548152906001019060200180831161029557829003601f168201915b505050505081526020016003820180546102cb90610e78565b80601f01602080910402602001604051908101604052809291908181526020018280546102f790610e78565b80156103445780601f1061031957610100808354040283529160200191610344565b820191906000526020600020905b81548152906001019060200180831161032757829003601f168201915b5050505050815260200160048201805461035d90610e78565b80601f016020809104026020016040519081016040528092919081815260200182805461038990610e78565b80156103d65780601f106103ab576101008083540402835291602001916103d6565b820191906000526020600020905b8154815290600101906020018083116103b957829003601f168201915b505050505081526020016005820160009054906101000a900460ff16151515158152505083838061040690610ed8565b94508151811061041957610418610f20565b5b60200260200101819052505b808061043090610ed8565b91505061013e565b50819250505090565b600060205280600052604060002060009150905080600001549080600101805461046a90610e78565b80601f016020809104026020016040519081016040528092919081815260200182805461049690610e78565b80156104e35780601f106104b8576101008083540402835291602001916104e3565b820191906000526020600020905b8154815290600101906020018083116104c657829003601f168201915b5050505050908060020180546104f890610e78565b80601f016020809104026020016040519081016040528092919081815260200182805461052490610e78565b80156105715780601f1061054657610100808354040283529160200191610571565b820191906000526020600020905b81548152906001019060200180831161055457829003601f168201915b50505050509080600301805461058690610e78565b80601f01602080910402602001604051908101604052809291908181526020018280546105b290610e78565b80156105ff5780601f106105d4576101008083540402835291602001916105ff565b820191906000526020600020905b8154815290600101906020018083116105e257829003601f168201915b50505050509080600401805461061490610e78565b80601f016020809104026020016040519081016040528092919081815260200182805461064090610e78565b801561068d5780601f106106625761010080835404028352916020019161068d565b820191906000526020600020905b81548152906001019060200180831161067057829003601f168201915b5050505050908060050160009054906101000a900460ff16905086565b60015481565b60008086815260200190815260200160002060050160009054906101000a900460ff1615610713576040517f08c379a000000000000000000000000000000000000000000000000000000000815260040161070a90610f9b565b60405180910390fd5b60006040518060c00160405280878152602001868152602001858152602001848152602001838152602001600115158152509050806000808881526020019081526020016000206000820151816000015560208201518160010190816107799190611167565b50604082015181600201908161078f9190611167565b5060608201518160030190816107a59190611167565b5060808201518160040190816107bb9190611167565b5060a08201518160050160006101000a81548160ff021916908315150217905550905050600160008154809291906107f290610ed8565b91905055507f3975f7f3bee90a9684d3e3bff0872b46fb4dfc61a571e57853964f1cd72150ec868686868660405161082e959493929190611239565b60405180910390a1505050505050565b6040518060c0016040528060008152602001606081526020016060815260200160608152602001606081526020016000151581525090565b600081519050919050565b600082825260208201905092915050565b6000819050602082019050919050565b6000819050919050565b6108b5816108a2565b82525050565b600081519050919050565b600082825260208201905092915050565b60005b838110156108f55780820151818401526020810190506108da565b60008484015250505050565b6000601f19601f8301169050919050565b600061091d826108bb565b61092781856108c6565b93506109378185602086016108d7565b61094081610901565b840191505092915050565b60008115159050919050565b6109608161094b565b82525050565b600060c08301600083015161097e60008601826108ac565b50602083015184820360208601526109968282610912565b915050604083015184820360408601526109b08282610912565b915050606083015184820360608601526109ca8282610912565b915050608083015184820360808601526109e48282610912565b91505060a08301516109f960a0860182610957565b508091505092915050565b6000610a108383610966565b905092915050565b6000602082019050919050565b6000610a3082610876565b610a3a8185610881565b935083602082028501610a4c85610892565b8060005b85811015610a885784840389528151610a698582610a04565b9450610a7483610a18565b925060208a01995050600181019050610a50565b50829750879550505050505092915050565b60006020820190508181036000830152610ab48184610a25565b905092915050565b6000604051905090565b600080fd5b600080fd5b610ad9816108a2565b8114610ae457600080fd5b50565b600081359050610af681610ad0565b92915050565b600060208284031215610b1257610b11610ac6565b5b6000610b2084828501610ae7565b91505092915050565b610b32816108a2565b82525050565b600082825260208201905092915050565b6000610b54826108bb565b610b5e8185610b38565b9350610b6e8185602086016108d7565b610b7781610901565b840191505092915050565b610b8b8161094b565b82525050565b600060c082019050610ba66000830189610b29565b8181036020830152610bb88188610b49565b90508181036040830152610bcc8187610b49565b90508181036060830152610be08186610b49565b90508181036080830152610bf48185610b49565b9050610c0360a0830184610b82565b979650505050505050565b6000602082019050610c236000830184610b29565b92915050565b600080fd5b600080fd5b7f4e487b7100000000000000000000000000000000000000000000000000000000600052604160045260246000fd5b610c6b82610901565b810181811067ffffffffffffffff82111715610c8a57610c89610c33565b5b80604052505050565b6000610c9d610abc565b9050610ca98282610c62565b919050565b600067ffffffffffffffff821115610cc957610cc8610c33565b5b610cd282610901565b9050602081019050919050565b82818337600083830152505050565b6000610d01610cfc84610cae565b610c93565b905082815260208101848484011115610d1d57610d1c610c2e565b5b610d28848285610cdf565b509392505050565b600082601f830112610d4557610d44610c29565b5b8135610d55848260208601610cee565b91505092915050565b600080600080600060a08688031215610d7a57610d79610ac6565b5b6000610d8888828901610ae7565b955050602086013567ffffffffffffffff811115610da957610da8610acb565b5b610db588828901610d30565b945050604086013567ffffffffffffffff811115610dd657610dd5610acb565b5b610de288828901610d30565b935050606086013567ffffffffffffffff811115610e0357610e02610acb565b5b610e0f88828901610d30565b925050608086013567ffffffffffffffff811115610e3057610e2f610acb565b5b610e3c88828901610d30565b9150509295509295909350565b7f4e487b7100000000000000000000000000000000000000000000000000000000600052602260045260246000fd5b60006002820490506001821680610e9057607f821691505b602082108103610ea357610ea2610e49565b5b50919050565b7f4e487b7100000000000000000000000000000000000000000000000000000000600052601160045260246000fd5b6000610ee3826108a2565b91507fffffffffffffffffffffffffffffffffffffffffffffffffffffffffffffffff8203610f1557610f14610ea9565b5b600182019050919050565b7f4e487b7100000000000000000000000000000000000000000000000000000000600052603260045260246000fd5b7f50617469656e7420616c72656164792065786973747300000000000000000000600082015250565b6000610f85601683610b38565b9150610f9082610f4f565b602082019050919050565b60006020820190508181036000830152610fb481610f78565b9050919050565b60008190508160005260206000209050919050565b60006020601f8301049050919050565b600082821b905092915050565b60006008830261101d7fffffffffffffffffffffffffffffffffffffffffffffffffffffffffffffffff82610fe0565b6110278683610fe0565b95508019841693508086168417925050509392505050565b6000819050919050565b600061106461105f61105a846108a2565b61103f565b6108a2565b9050919050565b6000819050919050565b61107e83611049565b61109261108a8261106b565b848454610fed565b825550505050565b600090565b6110a761109a565b6110b2818484611075565b505050565b5b818110156110d6576110cb60008261109f565b6001810190506110b8565b5050565b601f82111561111b576110ec81610fbb565b6110f584610fd0565b81016020851015611104578190505b61111861111085610fd0565b8301826110b7565b50505b505050565b600082821c905092915050565b600061113e60001984600802611120565b1980831691505092915050565b6000611157838361112d565b9150826002028217905092915050565b611170826108bb565b67ffffffffffffffff81111561118957611188610c33565b5b6111938254610e78565b61119e8282856110da565b600060209050601f8311600181146111d157600084156111bf578287015190505b6111c9858261114b565b865550611231565b601f1984166111df86610fbb565b60005b82811015611207578489015182556001820191506020850194506020810190506111e2565b868310156112245784890151611220601f89168261112d565b8355505b6001600288020188555050505b505050505050565b600060a08201905061124e6000830188610b29565b81810360208301526112608187610b49565b905081810360408301526112748186610b49565b905081810360608301526112888185610b49565b9050818103608083015261129c8184610b49565b9050969550505050505056fea2646970667358221220d040da32f3aef5a62bd1a3b210a0998cfe38ed497173f12bdd4b5832858ccc3064736f6c63430008130033",
  "immutableReferences": {},
  "source": "// SPDX-License-Identifier: MIT\r\npragma solidity ^0.8.0;\r\n\r\ncontract PatientRecords {\r\n    // Structure to define a patient\r\n    struct Patient {\r\n        uint256 patientId;\r\n        string name;\r\n        string diagnosis;\r\n        string DRGCode;\r\n        string CPTCode;\r\n        bool exists;\r\n    }\r\n\r\n    // Mapping patient ID to Patient details\r\n    mapping(uint256 => Patient) public patients;\r\n    uint256 public patientCount;\r\n\r\n    // Event emitted when a new patient record is added\r\n    event PatientAdded(uint256 patientId, string name, string diagnosis, string DRGCode, string CPTCode);\r\n\r\n    // Function to add a new patient record\r\n    function addPatient(uint256 _patientId, string memory _name, string memory _diagnosis, string memory _DRGCode, string memory _CPTCode) public {\r\n        require(!patients[_patientId].exists, \"Patient already exists\");\r\n        \r\n        // Create a new patient record\r\n        Patient memory newPatient = Patient(_patientId, _name, _diagnosis, _DRGCode, _CPTCode, true);\r\n        \r\n        // Add patient to mapping\r\n        patients[_patientId] = newPatient;\r\n        patientCount++;\r\n        \r\n        // Emit event\r\n        emit PatientAdded(_patientId, _name, _diagnosis, _DRGCode, _CPTCode);\r\n    }\r\n\r\n    // Function to retrieve all patient records\r\n    function retrievePatients() public view returns (Patient[] memory) {\r\n        Patient[] memory allPatients = new Patient[](patientCount);\r\n        uint256 index = 0;\r\n        \r\n        for (uint256 i = 0; i < patientCount; i++) {\r\n            if (patients[i].exists) {\r\n                allPatients[index++] = patients[i];\r\n            }\r\n        }\r\n        \r\n        return allPatients;\r\n    }\r\n}\r\n",
  "sourcePath": "D:\\Blockchain\\PatientRecords\\contracts\\PatientRecords.sol",
  "compiler": {
    "name": "solc",
    "version": "0.8.19+commit.7dd6d404.Emscripten.clang"
  },
  "schemaVersion": "3.4.16",
  "updatedAt": "2023-12-09T18:26:51.232Z",
  "networkType": "ethereum",
  "devdoc": {
    "kind": "dev",
    "methods": {},
    "version": 1
  },
  "userdoc": {
    "kind": "user",
    "methods": {},
    "version": 1
  }
}